{
  "contractName": "TwitterContract",
  "abi": [
    {
      "anonymous": false,
      "inputs": [
        {
          "indexed": false,
          "internalType": "address",
          "name": "recipient",
          "type": "address"
        },
        {
          "indexed": false,
          "internalType": "uint256",
          "name": "tweetId",
          "type": "uint256"
        }
      ],
      "name": "AddTweet",
      "type": "event"
    },
    {
      "anonymous": false,
      "inputs": [
        {
          "indexed": false,
          "internalType": "uint256",
          "name": "tweetId",
          "type": "uint256"
        },
        {
          "indexed": false,
          "internalType": "bool",
          "name": "isDeleted",
          "type": "bool"
        }
      ],
      "name": "DeleteTweet",
      "type": "event"
    },
    {
      "inputs": [
        {
          "internalType": "string",
          "name": "tweetText",
          "type": "string"
        },
        {
          "internalType": "bool",
          "name": "isDeleted",
          "type": "bool"
        }
      ],
      "name": "addTweet",
      "outputs": [],
      "stateMutability": "nonpayable",
      "type": "function"
    },
    {
      "inputs": [],
      "name": "getAllTweets",
      "outputs": [
        {
          "components": [
            {
              "internalType": "uint256",
              "name": "id",
              "type": "uint256"
            },
            {
              "internalType": "address",
              "name": "username",
              "type": "address"
            },
            {
              "internalType": "string",
              "name": "tweetText",
              "type": "string"
            },
            {
              "internalType": "bool",
              "name": "isDeleted",
              "type": "bool"
            }
          ],
          "internalType": "struct TwitterContract.Tweet[]",
          "name": "",
          "type": "tuple[]"
        }
      ],
      "stateMutability": "view",
      "type": "function"
    },
    {
      "inputs": [],
      "name": "getMyTweets",
      "outputs": [
        {
          "components": [
            {
              "internalType": "uint256",
              "name": "id",
              "type": "uint256"
            },
            {
              "internalType": "address",
              "name": "username",
              "type": "address"
            },
            {
              "internalType": "string",
              "name": "tweetText",
              "type": "string"
            },
            {
              "internalType": "bool",
              "name": "isDeleted",
              "type": "bool"
            }
          ],
          "internalType": "struct TwitterContract.Tweet[]",
          "name": "",
          "type": "tuple[]"
        }
      ],
      "stateMutability": "view",
      "type": "function"
    },
    {
      "inputs": [
        {
          "internalType": "uint256",
          "name": "tweetId",
          "type": "uint256"
        },
        {
          "internalType": "bool",
          "name": "isDeleted",
          "type": "bool"
        }
      ],
      "name": "deleteTweet",
      "outputs": [],
      "stateMutability": "nonpayable",
      "type": "function"
    }
  ],
  "bytecode": "0x608060405234801561001057600080fd5b50611264806100206000396000f3fe608060405234801561001057600080fd5b506004361061004c5760003560e01c80635325613514610051578063aefedbc21461006f578063e580339f1461008d578063f0312a37146100a9575b600080fd5b6100596100c5565b6040516100669190610bcc565b60405180910390f35b6100776103a6565b6040516100849190610bcc565b60405180910390f35b6100a760048036038101906100a29190610d63565b6106f2565b005b6100c360048036038101906100be9190610deb565b610878565b005b60606000808054905067ffffffffffffffff8111156100e7576100e6610c0c565b5b60405190808252806020026020018201604052801561012057816020015b61010d610959565b8152602001906001900390816101055790505b5090506000805b6000805490508110156102ec57600015156000828154811061014c5761014b610e2b565b5b906000526020600020906004020160030160009054906101000a900460ff161515036102d9576000818154811061018657610185610e2b565b5b9060005260206000209060040201604051806080016040529081600082015481526020016001820160009054906101000a900473ffffffffffffffffffffffffffffffffffffffff1673ffffffffffffffffffffffffffffffffffffffff1673ffffffffffffffffffffffffffffffffffffffff16815260200160028201805461020f90610e89565b80601f016020809104026020016040519081016040528092919081815260200182805461023b90610e89565b80156102885780601f1061025d57610100808354040283529160200191610288565b820191906000526020600020905b81548152906001019060200180831161026b57829003601f168201915b505050505081526020016003820160009054906101000a900460ff1615151515815250508383815181106102bf576102be610e2b565b5b602002602001018190525081806102d590610ee9565b9250505b80806102e490610ee9565b915050610127565b5060008167ffffffffffffffff81111561030957610308610c0c565b5b60405190808252806020026020018201604052801561034257816020015b61032f610959565b8152602001906001900390816103275790505b50905060005b8281101561039c5783818151811061036357610362610e2b565b5b602002602001015182828151811061037e5761037d610e2b565b5b6020026020010181905250808061039490610ee9565b915050610348565b5080935050505090565b60606000808054905067ffffffffffffffff8111156103c8576103c7610c0c565b5b60405190808252806020026020018201604052801561040157816020015b6103ee610959565b8152602001906001900390816103e65790505b5090506000805b600080549050811015610638573373ffffffffffffffffffffffffffffffffffffffff166001600083815260200190815260200160002060009054906101000a900473ffffffffffffffffffffffffffffffffffffffff1673ffffffffffffffffffffffffffffffffffffffff161480156104b95750600015156000828154811061049657610495610e2b565b5b906000526020600020906004020160030160009054906101000a900460ff161515145b1561062557600081815481106104d2576104d1610e2b565b5b9060005260206000209060040201604051806080016040529081600082015481526020016001820160009054906101000a900473ffffffffffffffffffffffffffffffffffffffff1673ffffffffffffffffffffffffffffffffffffffff1673ffffffffffffffffffffffffffffffffffffffff16815260200160028201805461055b90610e89565b80601f016020809104026020016040519081016040528092919081815260200182805461058790610e89565b80156105d45780601f106105a9576101008083540402835291602001916105d4565b820191906000526020600020905b8154815290600101906020018083116105b757829003601f168201915b505050505081526020016003820160009054906101000a900460ff16151515158152505083838151811061060b5761060a610e2b565b5b6020026020010181905250818061062190610ee9565b9250505b808061063090610ee9565b915050610408565b5060008167ffffffffffffffff81111561065557610654610c0c565b5b60405190808252806020026020018201604052801561068e57816020015b61067b610959565b8152602001906001900390816106735790505b50905060005b828110156106e8578381815181106106af576106ae610e2b565b5b60200260200101518282815181106106ca576106c9610e2b565b5b602002602001018190525080806106e090610ee9565b915050610694565b5080935050505090565b600080805490509050600060405180608001604052808381526020013373ffffffffffffffffffffffffffffffffffffffff16815260200185815260200184151581525090806001815401808255809150506001900390600052602060002090600402016000909190919091506000820151816000015560208201518160010160006101000a81548173ffffffffffffffffffffffffffffffffffffffff021916908373ffffffffffffffffffffffffffffffffffffffff16021790555060408201518160020190816107c591906110dd565b5060608201518160030160006101000a81548160ff0219169083151502179055505050336001600083815260200190815260200160002060006101000a81548173ffffffffffffffffffffffffffffffffffffffff021916908373ffffffffffffffffffffffffffffffffffffffff1602179055507f8b2db9b424f26463510ef5b02c16f2465836b52081b51d2112ec76102053bdea338260405161086b9291906111cd565b60405180910390a1505050565b3373ffffffffffffffffffffffffffffffffffffffff166001600084815260200190815260200160002060009054906101000a900473ffffffffffffffffffffffffffffffffffffffff1673ffffffffffffffffffffffffffffffffffffffff16036109555780600083815481106108f3576108f2610e2b565b5b906000526020600020906004020160030160006101000a81548160ff0219169083151502179055507f2430f837dd2fb40e08c064be9db3d0cf2a7a21f8fe716a2a41787dafc66a7e2a828260405161094c929190611205565b60405180910390a15b5050565b604051806080016040528060008152602001600073ffffffffffffffffffffffffffffffffffffffff168152602001606081526020016000151581525090565b600081519050919050565b600082825260208201905092915050565b6000819050602082019050919050565b6000819050919050565b6109d8816109c5565b82525050565b600073ffffffffffffffffffffffffffffffffffffffff82169050919050565b6000610a09826109de565b9050919050565b610a19816109fe565b82525050565b600081519050919050565b600082825260208201905092915050565b60005b83811015610a59578082015181840152602081019050610a3e565b83811115610a68576000848401525b50505050565b6000601f19601f8301169050919050565b6000610a8a82610a1f565b610a948185610a2a565b9350610aa4818560208601610a3b565b610aad81610a6e565b840191505092915050565b60008115159050919050565b610acd81610ab8565b82525050565b6000608083016000830151610aeb60008601826109cf565b506020830151610afe6020860182610a10565b5060408301518482036040860152610b168282610a7f565b9150506060830151610b2b6060860182610ac4565b508091505092915050565b6000610b428383610ad3565b905092915050565b6000602082019050919050565b6000610b6282610999565b610b6c81856109a4565b935083602082028501610b7e856109b5565b8060005b85811015610bba5784840389528151610b9b8582610b36565b9450610ba683610b4a565b925060208a01995050600181019050610b82565b50829750879550505050505092915050565b60006020820190508181036000830152610be68184610b57565b905092915050565b6000604051905090565b600080fd5b600080fd5b600080fd5b600080fd5b7f4e487b7100000000000000000000000000000000000000000000000000000000600052604160045260246000fd5b610c4482610a6e565b810181811067ffffffffffffffff82111715610c6357610c62610c0c565b5b80604052505050565b6000610c76610bee565b9050610c828282610c3b565b919050565b600067ffffffffffffffff821115610ca257610ca1610c0c565b5b610cab82610a6e565b9050602081019050919050565b82818337600083830152505050565b6000610cda610cd584610c87565b610c6c565b905082815260208101848484011115610cf657610cf5610c07565b5b610d01848285610cb8565b509392505050565b600082601f830112610d1e57610d1d610c02565b5b8135610d2e848260208601610cc7565b91505092915050565b610d4081610ab8565b8114610d4b57600080fd5b50565b600081359050610d5d81610d37565b92915050565b60008060408385031215610d7a57610d79610bf8565b5b600083013567ffffffffffffffff811115610d9857610d97610bfd565b5b610da485828601610d09565b9250506020610db585828601610d4e565b9150509250929050565b610dc8816109c5565b8114610dd357600080fd5b50565b600081359050610de581610dbf565b92915050565b60008060408385031215610e0257610e01610bf8565b5b6000610e1085828601610dd6565b9250506020610e2185828601610d4e565b9150509250929050565b7f4e487b7100000000000000000000000000000000000000000000000000000000600052603260045260246000fd5b7f4e487b7100000000000000000000000000000000000000000000000000000000600052602260045260246000fd5b60006002820490506001821680610ea157607f821691505b602082108103610eb457610eb3610e5a565b5b50919050565b7f4e487b7100000000000000000000000000000000000000000000000000000000600052601160045260246000fd5b6000610ef4826109c5565b91507fffffffffffffffffffffffffffffffffffffffffffffffffffffffffffffffff8203610f2657610f25610eba565b5b600182019050919050565b60008190508160005260206000209050919050565b60006020601f8301049050919050565b600082821b905092915050565b600060088302610f937fffffffffffffffffffffffffffffffffffffffffffffffffffffffffffffffff82610f56565b610f9d8683610f56565b95508019841693508086168417925050509392505050565b6000819050919050565b6000610fda610fd5610fd0846109c5565b610fb5565b6109c5565b9050919050565b6000819050919050565b610ff483610fbf565b61100861100082610fe1565b848454610f63565b825550505050565b600090565b61101d611010565b611028818484610feb565b505050565b5b8181101561104c57611041600082611015565b60018101905061102e565b5050565b601f8211156110915761106281610f31565b61106b84610f46565b8101602085101561107a578190505b61108e61108685610f46565b83018261102d565b50505b505050565b600082821c905092915050565b60006110b460001984600802611096565b1980831691505092915050565b60006110cd83836110a3565b9150826002028217905092915050565b6110e682610a1f565b67ffffffffffffffff8111156110ff576110fe610c0c565b5b6111098254610e89565b611114828285611050565b600060209050601f8311600181146111475760008415611135578287015190505b61113f85826110c1565b8655506111a7565b601f19841661115586610f31565b60005b8281101561117d57848901518255600182019150602085019450602081019050611158565b8683101561119a5784890151611196601f8916826110a3565b8355505b6001600288020188555050505b505050505050565b6111b8816109fe565b82525050565b6111c7816109c5565b82525050565b60006040820190506111e260008301856111af565b6111ef60208301846111be565b9392505050565b6111ff81610ab8565b82525050565b600060408201905061121a60008301856111be565b61122760208301846111f6565b939250505056fea26469706673582212209d63b36f86519a206340033426b9f2746c168379f57d36707ca9e2a81a16cc0d64736f6c634300080f0033",
  "immutableReferences": {},
  "source": "// SPDX-License-Identifier: GPL-3.0\n\npragma solidity ^0.8.0;\n/**\n * @title Twitter Contract\n * @dev Store & retrieve value in a variable\n */\ncontract TwitterContract {\n\n    event AddTweet(address recipient, uint tweetId);\n    event DeleteTweet(uint tweetId, bool isDeleted);\n\n    struct Tweet {\n        uint id;\n        address username;\n        string tweetText;\n        bool isDeleted;\n    }\n\n    Tweet[] private tweets;\n\n    // Mapping of Tweet id to the wallet address of the user\n    mapping(uint256 => address) tweetToOwner;\n\n    // Method to be called by our frontend when trying to add a new Tweet\n    function addTweet(string memory tweetText, bool isDeleted) external {\n        uint tweetId = tweets.length;\n        tweets.push(Tweet(tweetId, msg.sender, tweetText, isDeleted));\n        tweetToOwner[tweetId] = msg.sender;\n        emit AddTweet(msg.sender, tweetId);\n    }\n\n    // Method to get all the Tweets\n    function getAllTweets() external view returns (Tweet[] memory) {\n        Tweet[] memory temporary = new Tweet[](tweets.length);\n        uint counter = 0;\n        for(uint i=0; i<tweets.length; i++) {\n            if(tweets[i].isDeleted == false) {\n                temporary[counter] = tweets[i];\n                counter++;\n            }\n        }\n\n        Tweet[] memory result = new Tweet[](counter);\n        for(uint i=0; i<counter; i++) {\n            result[i] = temporary[i];\n        }\n        return result;\n    }\n\n    // Method to get only your Tweets\n    function getMyTweets() external view returns (Tweet[] memory) {\n        Tweet[] memory temporary = new Tweet[](tweets.length);\n        uint counter = 0;\n        for(uint i=0; i<tweets.length; i++) {\n            if(tweetToOwner[i] == msg.sender && tweets[i].isDeleted == false) {\n                temporary[counter] = tweets[i];\n                counter++;\n            }\n        }\n\n        Tweet[] memory result = new Tweet[](counter);\n        for(uint i=0; i<counter; i++) {\n            result[i] = temporary[i];\n        }\n        return result;\n    }\n\n    // Method to Delete a Tweet\n    function deleteTweet(uint tweetId, bool isDeleted) external {\n        if(tweetToOwner[tweetId] == msg.sender) {\n            tweets[tweetId].isDeleted = isDeleted;\n            emit DeleteTweet(tweetId, isDeleted);\n        }\n    }\n\n}\n",
  "sourcePath": "/home/prakhar/Desktop/twitter/decentralised_twitter/src/contracts/Twitter.sol",
  "compiler": {
    "name": "solc",
    "version": "0.8.15+commit.e14f2714.Emscripten.clang"
  },
  "schemaVersion": "3.4.8",
  "updatedAt": "2022-08-03T10:13:13.371Z",
  "devdoc": {
    "details": "Store & retrieve value in a variable",
    "kind": "dev",
    "methods": {},
    "title": "Twitter Contract",
    "version": 1
  },
  "userdoc": {
    "kind": "user",
    "methods": {},
    "version": 1
  }
}